{"abi":[{"type":"constructor","inputs":[{"name":"_entrypoint","type":"address","internalType":"contract IEntryPoint"}],"stateMutability":"nonpayable"},{"type":"fallback","stateMutability":"payable"},{"type":"receive","stateMutability":"payable"},{"type":"function","name":"accountId","inputs":[],"outputs":[{"name":"accountImplementationId","type":"string","internalType":"string"}],"stateMutability":"pure"},{"type":"function","name":"changeRootValidator","inputs":[{"name":"_rootValidator","type":"bytes21","internalType":"ValidationId"},{"name":"hook","type":"address","internalType":"contract IHook"},{"name":"validatorData","type":"bytes","internalType":"bytes"},{"name":"hookData","type":"bytes","internalType":"bytes"}],"outputs":[],"stateMutability":"payable"},{"type":"function","name":"currentNonce","inputs":[],"outputs":[{"name":"","type":"uint32","internalType":"uint32"}],"stateMutability":"view"},{"type":"function","name":"eip712Domain","inputs":[],"outputs":[{"name":"fields","type":"bytes1","internalType":"bytes1"},{"name":"name","type":"string","internalType":"string"},{"name":"version","type":"string","internalType":"string"},{"name":"chainId","type":"uint256","internalType":"uint256"},{"name":"verifyingContract","type":"address","internalType":"address"},{"name":"salt","type":"bytes32","internalType":"bytes32"},{"name":"extensions","type":"uint256[]","internalType":"uint256[]"}],"stateMutability":"view"},{"type":"function","name":"entrypoint","inputs":[],"outputs":[{"name":"","type":"address","internalType":"contract IEntryPoint"}],"stateMutability":"view"},{"type":"function","name":"execute","inputs":[{"name":"execMode","type":"bytes32","internalType":"ExecMode"},{"name":"executionCalldata","type":"bytes","internalType":"bytes"}],"outputs":[],"stateMutability":"payable"},{"type":"function","name":"executeFromExecutor","inputs":[{"name":"execMode","type":"bytes32","internalType":"ExecMode"},{"name":"executionCalldata","type":"bytes","internalType":"bytes"}],"outputs":[{"name":"returnData","type":"bytes[]","internalType":"bytes[]"}],"stateMutability":"payable"},{"type":"function","name":"executeUserOp","inputs":[{"name":"userOp","type":"tuple","internalType":"struct PackedUserOperation","components":[{"name":"sender","type":"address","internalType":"address"},{"name":"nonce","type":"uint256","internalType":"uint256"},{"name":"initCode","type":"bytes","internalType":"bytes"},{"name":"callData","type":"bytes","internalType":"bytes"},{"name":"accountGasLimits","type":"bytes32","internalType":"bytes32"},{"name":"preVerificationGas","type":"uint256","internalType":"uint256"},{"name":"gasFees","type":"bytes32","internalType":"bytes32"},{"name":"paymasterAndData","type":"bytes","internalType":"bytes"},{"name":"signature","type":"bytes","internalType":"bytes"}]},{"name":"userOpHash","type":"bytes32","internalType":"bytes32"}],"outputs":[],"stateMutability":"payable"},{"type":"function","name":"executorConfig","inputs":[{"name":"executor","type":"address","internalType":"contract IExecutor"}],"outputs":[{"name":"","type":"tuple","internalType":"struct ExecutorManager.ExecutorConfig","components":[{"name":"hook","type":"address","internalType":"contract IHook"}]}],"stateMutability":"view"},{"type":"function","name":"initialize","inputs":[{"name":"_rootValidator","type":"bytes21","internalType":"ValidationId"},{"name":"hook","type":"address","internalType":"contract IHook"},{"name":"validatorData","type":"bytes","internalType":"bytes"},{"name":"hookData","type":"bytes","internalType":"bytes"},{"name":"initConfig","type":"bytes[]","internalType":"bytes[]"}],"outputs":[],"stateMutability":"nonpayable"},{"type":"function","name":"installModule","inputs":[{"name":"moduleType","type":"uint256","internalType":"uint256"},{"name":"module","type":"address","internalType":"address"},{"name":"initData","type":"bytes","internalType":"bytes"}],"outputs":[],"stateMutability":"payable"},{"type":"function","name":"installValidations","inputs":[{"name":"vIds","type":"bytes21[]","internalType":"ValidationId[]"},{"name":"configs","type":"tuple[]","internalType":"struct ValidationManager.ValidationConfig[]","components":[{"name":"nonce","type":"uint32","internalType":"uint32"},{"name":"hook","type":"address","internalType":"contract IHook"}]},{"name":"validationData","type":"bytes[]","internalType":"bytes[]"},{"name":"hookData","type":"bytes[]","internalType":"bytes[]"}],"outputs":[],"stateMutability":"payable"},{"type":"function","name":"invalidateNonce","inputs":[{"name":"nonce","type":"uint32","internalType":"uint32"}],"outputs":[],"stateMutability":"payable"},{"type":"function","name":"isAllowedSelector","inputs":[{"name":"vId","type":"bytes21","internalType":"ValidationId"},{"name":"selector","type":"bytes4","internalType":"bytes4"}],"outputs":[{"name":"","type":"bool","internalType":"bool"}],"stateMutability":"view"},{"type":"function","name":"isModuleInstalled","inputs":[{"name":"moduleType","type":"uint256","internalType":"uint256"},{"name":"module","type":"address","internalType":"address"},{"name":"additionalContext","type":"bytes","internalType":"bytes"}],"outputs":[{"name":"","type":"bool","internalType":"bool"}],"stateMutability":"view"},{"type":"function","name":"isValidSignature","inputs":[{"name":"hash","type":"bytes32","internalType":"bytes32"},{"name":"signature","type":"bytes","internalType":"bytes"}],"outputs":[{"name":"","type":"bytes4","internalType":"bytes4"}],"stateMutability":"view"},{"type":"function","name":"onERC1155BatchReceived","inputs":[{"name":"","type":"address","internalType":"address"},{"name":"","type":"address","internalType":"address"},{"name":"","type":"uint256[]","internalType":"uint256[]"},{"name":"","type":"uint256[]","internalType":"uint256[]"},{"name":"","type":"bytes","internalType":"bytes"}],"outputs":[{"name":"","type":"bytes4","internalType":"bytes4"}],"stateMutability":"pure"},{"type":"function","name":"onERC1155Received","inputs":[{"name":"","type":"address","internalType":"address"},{"name":"","type":"address","internalType":"address"},{"name":"","type":"uint256","internalType":"uint256"},{"name":"","type":"uint256","internalType":"uint256"},{"name":"","type":"bytes","internalType":"bytes"}],"outputs":[{"name":"","type":"bytes4","internalType":"bytes4"}],"stateMutability":"pure"},{"type":"function","name":"onERC721Received","inputs":[{"name":"","type":"address","internalType":"address"},{"name":"","type":"address","internalType":"address"},{"name":"","type":"uint256","internalType":"uint256"},{"name":"","type":"bytes","internalType":"bytes"}],"outputs":[{"name":"","type":"bytes4","internalType":"bytes4"}],"stateMutability":"pure"},{"type":"function","name":"permissionConfig","inputs":[{"name":"pId","type":"bytes4","internalType":"PermissionId"}],"outputs":[{"name":"","type":"tuple","internalType":"struct ValidationManager.PermissionConfig","components":[{"name":"permissionFlag","type":"bytes2","internalType":"PassFlag"},{"name":"signer","type":"address","internalType":"contract ISigner"},{"name":"policyData","type":"bytes22[]","internalType":"PolicyData[]"}]}],"stateMutability":"view"},{"type":"function","name":"rootValidator","inputs":[],"outputs":[{"name":"","type":"bytes21","internalType":"ValidationId"}],"stateMutability":"view"},{"type":"function","name":"selectorConfig","inputs":[{"name":"selector","type":"bytes4","internalType":"bytes4"}],"outputs":[{"name":"","type":"tuple","internalType":"struct SelectorManager.SelectorConfig","components":[{"name":"hook","type":"address","internalType":"contract IHook"},{"name":"target","type":"address","internalType":"address"},{"name":"callType","type":"bytes1","internalType":"CallType"}]}],"stateMutability":"view"},{"type":"function","name":"supportsExecutionMode","inputs":[{"name":"mode","type":"bytes32","internalType":"ExecMode"}],"outputs":[{"name":"","type":"bool","internalType":"bool"}],"stateMutability":"pure"},{"type":"function","name":"supportsModule","inputs":[{"name":"moduleTypeId","type":"uint256","internalType":"uint256"}],"outputs":[{"name":"","type":"bool","internalType":"bool"}],"stateMutability":"pure"},{"type":"function","name":"uninstallModule","inputs":[{"name":"moduleType","type":"uint256","internalType":"uint256"},{"name":"module","type":"address","internalType":"address"},{"name":"deInitData","type":"bytes","internalType":"bytes"}],"outputs":[],"stateMutability":"payable"},{"type":"function","name":"uninstallValidation","inputs":[{"name":"vId","type":"bytes21","internalType":"ValidationId"},{"name":"deinitData","type":"bytes","internalType":"bytes"},{"name":"hookDeinitData","type":"bytes","internalType":"bytes"}],"outputs":[],"stateMutability":"payable"},{"type":"function","name":"upgradeTo","inputs":[{"name":"_newImplementation","type":"address","internalType":"address"}],"outputs":[],"stateMutability":"payable"},{"type":"function","name":"validNonceFrom","inputs":[],"outputs":[{"name":"","type":"uint32","internalType":"uint32"}],"stateMutability":"view"},{"type":"function","name":"validateUserOp","inputs":[{"name":"userOp","type":"tuple","internalType":"struct PackedUserOperation","components":[{"name":"sender","type":"address","internalType":"address"},{"name":"nonce","type":"uint256","internalType":"uint256"},{"name":"initCode","type":"bytes","internalType":"bytes"},{"name":"callData","type":"bytes","internalType":"bytes"},{"name":"accountGasLimits","type":"bytes32","internalType":"bytes32"},{"name":"preVerificationGas","type":"uint256","internalType":"uint256"},{"name":"gasFees","type":"bytes32","internalType":"bytes32"},{"name":"paymasterAndData","type":"bytes","internalType":"bytes"},{"name":"signature","type":"bytes","internalType":"bytes"}]},{"name":"userOpHash","type":"bytes32","internalType":"bytes32"},{"name":"missingAccountFunds","type":"uint256","internalType":"uint256"}],"outputs":[{"name":"validationData","type":"uint256","internalType":"ValidationData"}],"stateMutability":"payable"},{"type":"function","name":"validationConfig","inputs":[{"name":"vId","type":"bytes21","internalType":"ValidationId"}],"outputs":[{"name":"","type":"tuple","internalType":"struct ValidationManager.ValidationConfig","components":[{"name":"nonce","type":"uint32","internalType":"uint32"},{"name":"hook","type":"address","internalType":"contract IHook"}]}],"stateMutability":"view"},{"type":"event","name":"ModuleInstalled","inputs":[{"name":"moduleTypeId","type":"uint256","indexed":false,"internalType":"uint256"},{"name":"module","type":"address","indexed":false,"internalType":"address"}],"anonymous":false},{"type":"event","name":"ModuleUninstallResult","inputs":[{"name":"module","type":"address","indexed":false,"internalType":"address"},{"name":"result","type":"bool","indexed":false,"internalType":"bool"}],"anonymous":false},{"type":"event","name":"ModuleUninstalled","inputs":[{"name":"moduleTypeId","type":"uint256","indexed":false,"internalType":"uint256"},{"name":"module","type":"address","indexed":false,"internalType":"address"}],"anonymous":false},{"type":"event","name":"NonceInvalidated","inputs":[{"name":"nonce","type":"uint32","indexed":false,"internalType":"uint32"}],"anonymous":false},{"type":"event","name":"PermissionInstalled","inputs":[{"name":"permission","type":"bytes4","indexed":false,"internalType":"PermissionId"},{"name":"nonce","type":"uint32","indexed":false,"internalType":"uint32"}],"anonymous":false},{"type":"event","name":"PermissionUninstalled","inputs":[{"name":"permission","type":"bytes4","indexed":false,"internalType":"PermissionId"}],"anonymous":false},{"type":"event","name":"Received","inputs":[{"name":"sender","type":"address","indexed":false,"internalType":"address"},{"name":"amount","type":"uint256","indexed":false,"internalType":"uint256"}],"anonymous":false},{"type":"event","name":"RootValidatorUpdated","inputs":[{"name":"rootValidator","type":"bytes21","indexed":false,"internalType":"ValidationId"}],"anonymous":false},{"type":"event","name":"SelectorSet","inputs":[{"name":"selector","type":"bytes4","indexed":false,"internalType":"bytes4"},{"name":"vId","type":"bytes21","indexed":false,"internalType":"ValidationId"},{"name":"allowed","type":"bool","indexed":false,"internalType":"bool"}],"anonymous":false},{"type":"event","name":"TryExecuteUnsuccessful","inputs":[{"name":"batchExecutionindex","type":"uint256","indexed":false,"internalType":"uint256"},{"name":"result","type":"bytes","indexed":false,"internalType":"bytes"}],"anonymous":false},{"type":"event","name":"Upgraded","inputs":[{"name":"implementation","type":"address","indexed":true,"internalType":"address"}],"anonymous":false},{"type":"event","name":"ValidatorInstalled","inputs":[{"name":"validator","type":"address","indexed":false,"internalType":"contract IValidator"},{"name":"nonce","type":"uint32","indexed":false,"internalType":"uint32"}],"anonymous":false},{"type":"event","name":"ValidatorUninstalled","inputs":[{"name":"validator","type":"address","indexed":false,"internalType":"contract IValidator"}],"anonymous":false},{"type":"error","name":"EnableNotApproved","inputs":[]},{"type":"error","name":"ExecutionReverted","inputs":[]},{"type":"error","name":"InitConfigError","inputs":[{"name":"idx","type":"uint256","internalType":"uint256"}]},{"type":"error","name":"InvalidCallType","inputs":[]},{"type":"error","name":"InvalidCaller","inputs":[]},{"type":"error","name":"InvalidExecutor","inputs":[]},{"type":"error","name":"InvalidFallback","inputs":[]},{"type":"error","name":"InvalidMode","inputs":[]},{"type":"error","name":"InvalidModuleType","inputs":[]},{"type":"error","name":"InvalidNonce","inputs":[]},{"type":"error","name":"InvalidSelector","inputs":[]},{"type":"error","name":"InvalidSignature","inputs":[]},{"type":"error","name":"InvalidValidationType","inputs":[]},{"type":"error","name":"InvalidValidator","inputs":[]},{"type":"error","name":"NonceInvalidationError","inputs":[]},{"type":"error","name":"NotSupportedCallType","inputs":[]},{"type":"error","name":"OnlyExecuteUserOp","inputs":[]},{"type":"error","name":"PermissionDataLengthMismatch","inputs":[]},{"type":"error","name":"PermissionNotAlllowedForSignature","inputs":[]},{"type":"error","name":"PermissionNotAlllowedForUserOp","inputs":[]},{"type":"error","name":"PolicyDataTooLarge","inputs":[]},{"type":"error","name":"PolicyFailed","inputs":[{"name":"i","type":"uint256","internalType":"uint256"}]},{"type":"error","name":"PolicySignatureOrderError","inputs":[]},{"type":"error","name":"RootValidatorCannotBeRemoved","inputs":[]},{"type":"error","name":"SignerPrefixNotPresent","inputs":[]}],"bytecode":{"object":"0x61014060405234801561001157600080fd5b506040516172093803806172098339810160408190526100309161015a565b306080524660a05260608061007a604080518082018252600681526512d95c9b995b60d21b60208083019190915282518084019093526005835264302e332e3160d81b9083015291565b815160209283012081519183019190912060c082905260e0819052604080517f8b73c3c69bb8fe3d512ecc4cf759cc79239f7b179b0ffacaa9a75d522b39400f8152808501939093528281019190915246606083015230608083015260a0909120610100526001600160a01b03851661012052805163deadbeef60e01b92810192909252805160048184030181526024909201905261011b9250905061018a565b7f7bcaa2ced2a71450ed5a9a1b4848e8e5206dbc3f06011e595f7f55428cc6f84f80546001600160a81b03191660589290921c919091179055506101c8565b60006020828403121561016c57600080fd5b81516001600160a01b038116811461018357600080fd5b9392505050565b805160208201516001600160581b03198116919060158210156101c1576001600160581b0319601583900360031b81901b82161692505b5050919050565b60805160a05160c05160e0516101005161012051616fa5610264600039600081816102ef0152818161069401528181610cb701528181610fec015281816111b6015281816115a301528181611a7101528181611b9501528181611d590152818161253901528181612e6b015261303c0152600061465b01526000614715015260006146ef0152600061469f0152600061467c0152616fa56000f3fe6080604052600436106101d15760003560e01c80639517e29f116100f7578063c3e5897811610095578063e9ae5c5311610064578063e9ae5c53146107ef578063f1f7f0f914610802578063f23a6e6114610830578063f2dc691d1461085d57610210565b8063c3e589781461076f578063d03c79141461079c578063d691c964146107bc578063e6f3d50a146107dc57610210565b8063a71763a8116100d1578063a71763a8146106ce578063adb610a3146106e1578063b8afe17d146106f6578063bc197c811461074057610210565b80639517e29f1461062a5780639cfd7cff1461063d578063a65d69d41461068257610210565b806352141cd91161016f57806384b0196e1161013e57806384b0196e146105b25780638dd7712f146105da57806390ef8862146105ed5780639198bdf51461061757610210565b806352141cd9146104ed57806357b3a5f4146105005780636e6fa0c61461055a578063721e67f41461057a57610210565b806319822f7c116101ab57806319822f7c146104845780631f1b92e3146104a55780633659cfe6146104ba5780633c3b752b146104cd57610210565b8063112d3a7d146103ea578063150b7a021461041f5780631626ba7e1461046457610210565b3661021057604080513381523460208201527f88a5966d370b9919b20f3e2c13ff65706f196a4e32cc2c12bf57088f88525874910160405180910390a1005b60006102276000356001600160e01b03191661087d565b604080516060808201835283546001600160a01b039081168084526001909501549081166020840152600160a01b900460f81b6001600160f81b03191692820192909252925060009161028d57604051631cd4b64760e21b815260040160405180910390fd5b82516060906001600160a01b03166001148015906102b6575083516001600160a01b0390811614155b156102d15783516102ca90346000366108b7565b905061032d565b83516001600160a01b03908116900361032d57336001600160a01b037f0000000000000000000000000000000000000000000000000000000000000000161461032d576040516348f5c3ed60e01b815260040160405180910390fd5b604084015161033d90600061093c565b156103595761034f8460200151610953565b909350915061039e565b6040840151610370906001600160f81b031961093c565b156103855761034f84602001516000366109a3565b604051632d6a6bb760e01b815260040160405180910390fd5b826103ab57815160208301fd5b83516001600160a01b03166001148015906103d1575083516001600160a01b0390811614155b156103e25783516103e290826109d2565b815160208301f35b3480156103f657600080fd5b5061040a610405366004615f19565b610a34565b60405190151581526020015b60405180910390f35b34801561042b57600080fd5b5061044b61043a366004615f74565b630a85bd0160e11b95945050505050565b6040516001600160e01b03199091168152602001610416565b34801561047057600080fd5b5061044b61047f366004615fe6565b610b09565b61049761049236600461604a565b610caa565b604051908152602001610416565b6104b86104b33660046160ab565b610fc5565b005b6104b86104c83660046160c6565b61119c565b3480156104d957600080fd5b506104b86104e836600461613f565b6113b5565b6104b86104fb366004616205565b611589565b34801561050c57600080fd5b5061052061051b3660046162b1565b61191e565b6040805182516001600160a01b03908116825260208085015190911690820152918101516001600160f81b03191690820152606001610416565b34801561056657600080fd5b5061040a6105753660046162ce565b61198a565b34801561058657600080fd5b5061059a6105953660046160c6565b6119d2565b60405190516001600160a01b03168152602001610416565b3480156105be57600080fd5b506105c7611a08565b6040516104169796959493929190616355565b6104b86105e83660046163ed565b611a66565b3480156105f957600080fd5b50610602611b5e565b60405163ffffffff9091168152602001610416565b6104b86106253660046164c2565b611b7b565b6104b8610638366004615f19565b611d3f565b34801561064957600080fd5b5060408051808201825260168152756b65726e656c2e616476616e6365642e76302e332e3160501b60208201529051610416919061663d565b34801561068e57600080fd5b506106b67f000000000000000000000000000000000000000000000000000000000000000081565b6040516001600160a01b039091168152602001610416565b6104b86106dc366004615f19565b61251f565b3480156106ed57600080fd5b50610602612b78565b34801561070257600080fd5b50610716610711366004616650565b612b95565b60408051825163ffffffff1681526020928301516001600160a01b03169281019290925201610416565b34801561074c57600080fd5b5061044b61075b36600461666b565b63bc197c8160e01b98975050505050505050565b34801561077b57600080fd5b5061078f61078a3660046162b1565b612bfd565b604051610416919061671f565b3480156107a857600080fd5b5061040a6107b73660046167a2565b612cd9565b6107cf6107ca366004615fe6565b612dc6565b60405161041691906167bb565b6104b86107ea366004616820565b612e51565b6104b86107fd366004615fe6565b613022565b34801561080e57600080fd5b506108176131db565b6040516001600160581b03199091168152602001610416565b34801561083c57600080fd5b5061044b61084b366004616887565b63f23a6e6160e01b9695505050505050565b34801561086957600080fd5b5061040a6108783660046167a2565b6131ee565b6001600160e01b03191660009081527f7c341349a4360fdd5d5bc07e69f325dc6aaea3eb018b3e0ea7e53cc0bb0d6f3b6020526040902090565b60405163d68f602560e01b81526060906001600160a01b0386169063d68f6025906108ec90339088908890889060040161690d565b6000604051808303816000875af115801561090b573d6000803e3d6000fd5b505050506040513d6000823e601f3d908101601f191682016040526109339190810190616966565b95945050505050565b6001600160f81b0319828116908216145b92915050565b6000606060408051368101909152366000823760408051601481019091523360601b9052600080366014018382885af192505060405190503d8152602081013d6000823e3d810160405250915091565b604051600090828482376000388483885af491503d8152602081013d6000823e3d810160405250935093915050565b604051630b9dfbed60e11b81526001600160a01b0383169063173bf7da906109fe90849060040161663d565b600060405180830381600087803b158015610a1857600080fd5b505af1158015610a2c573d6000803e3d6000fd5b505050505050565b600060018503610a91576000610a4861320e565b6001016000610a5d8760581b600160f81b1790565b6001600160581b0319168152602081019190915260400160002054600160201b90046001600160a01b031614159050610b01565b60028503610ab7576000610aa485613232565b546001600160a01b031614159050610b01565b60038503610afd576001600160a01b038416610ae8610ada6004600086886169d8565b610ae391616a02565b61087d565b600101546001600160a01b0316149050610b01565b5060005b949350505050565b600080610b1461320e565b90506000366000610b25878761326b565b925092509250610b3c610b358490565b600061093c565b15610b4957835460581b92505b6001600160581b031983166000908152600185016020526040902054600160201b90046001600160a01b0316610b9257604051631a0a9b9f60e21b815260040160405180910390fd5b610ba083600160f81b61093c565b15610c3a576000610bb18460581c90565b9050806001600160a01b031663f551e2ee33610bcc8c6132d8565b86866040518563ffffffff1660e01b8152600401610bed949392919061690d565b602060405180830381865afa158015610c0a573d6000803e3d6000fd5b505050506040513d601f19601f82011682018060405250810190610c2e9190616a3a565b95505050505050610ca3565b6000610c468460081b90565b6001600160e01b03198116600090815260038701602052604090205490915060f01b600160f11b811615610c8d57604051635b71057960e01b815260040160405180910390fd5b610c9a82338c878761332e565b96505050505050505b9392505050565b6000336001600160a01b037f00000000000000000000000000000000000000000000000000000000000000001614610cf5576040516348f5c3ed60e01b815260040160405180910390fd5b6000610cff61320e565b90506000806000610d13886020013561342c565b91945092509050610d2582600061093c565b15610d315750825460581b5b610d3d83828a8a61345a565b6001600160581b031982166000908152600186016020908152604080832081518083019092525463ffffffff81168252600160201b90046001600160a01b031691810191909152919650610d92908490613656565b8015610db057508454815163ffffffff600160c81b90920482169116105b15610dce57604051633ab3447f60e11b815260040160405180910390fd5b60208101516001600160a01b038116610dfa57604051631a0a9b9f60e21b815260040160405180910390fd5b600089815260208190526040902080546001600160a01b0319166001600160a01b03831690811790915560001901610ec257610e37846000613656565b8015610e9f57506001600160581b031983166000908152600287016020526040812090610e6760608d018d616a57565b610e76916004916000916169d8565b610e7f91616a02565b6001600160e01b031916815260208101919091526040016000205460ff16155b15610ebd57604051631a0a9b9f60e21b815260040160405180910390fd5b610fa8565b610ecd846000613656565b8015610f3557506001600160581b031983166000908152600287016020526040812090610efd60608d018d616a57565b610f0c916008916004916169d8565b610f1591616a02565b6001600160e01b031916815260208101919091526040016000205460ff16155b15610f5357604051631a0a9b9f60e21b815260040160405180910390fd5b638dd7712f60e01b610f6860608c018c616a57565b610f77916004916000916169d8565b610f8091616a02565b6001600160e01b03191614610fa85760405163dbbb044b60e01b815260040160405180910390fd5b8715610fb857343434348b335af1505b5050505050509392505050565b6000610fdf610fd261320e565b546001600160a81b031690565b9050336001600160a01b037f0000000000000000000000000000000000000000000000000000000000000000161480159061101a5750333014155b1561118f5760405163ecd0596160e01b81526004808201526001600160a01b0382169063ecd0596190602401602060405180830381865afa158015611063573d6000803e3d6000fd5b505050506040513d601f19601f820116820180604052508101906110879190616a9d565b156111765760405163d68f602560e01b81526000906001600160a01b0383169063d68f6025906110c190339034908690369060040161690d565b6000604051808303816000875af11580156110e0573d6000803e3d6000fd5b505050506040513d6000823e601f3d908101601f191682016040526111089190810190616966565b905061111383613669565b604051630b9dfbed60e11b81526001600160a01b0383169063173bf7da9061113f90849060040161663d565b600060405180830381600087803b15801561115957600080fd5b505af115801561116d573d6000803e3d6000fd5b50505050505050565b6040516348f5c3ed60e01b815260040160405180910390fd5b61119882613669565b5050565b60006111a9610fd261320e565b9050336001600160a01b037f000000000000000000000000000000000000000000000000000000000000000016148015906111e45750333014155b156113595760405163ecd0596160e01b81526004808201526001600160a01b0382169063ecd0596190602401602060405180830381865afa15801561122d573d6000803e3d6000fd5b505050506040513d601f19601f820116820180604052508101906112519190616a9d565b156111765760405163d68f602560e01b81526000906001600160a01b0383169063d68f60259061128b90339034908690369060040161690d565b6000604051808303816000875af11580156112aa573d6000803e3d6000fd5b505050506040513d6000823e601f3d908101601f191682016040526112d29190810190616966565b9050827f360894a13ba1a3210667c828492db98dca3e2076cc3735a920a3ca505d382bbc55826001600160a01b03167fbc7cd75a20ee27fd9adebab32041f755214dbc6bffa90cc0225b39da2e5c2d3b60405160405180910390a2604051630b9dfbed60e11b81526001600160a01b0383169063173bf7da9061113f90849060040161663d565b7f360894a13ba1a3210667c828492db98dca3e2076cc3735a920a3ca505d382bbc8290556040516001600160a01b038316907fbc7cd75a20ee27fd9adebab32041f755214dbc6bffa90cc0225b39da2e5c2d3b90600090a25050565b60006113bf61320e565b805490915060581b6001600160581b031916156114195760405162461bcd60e51b8152602060048201526013602482015272185b1c9958591e481a5b9a5d1a585b1a5e9959606a1b60448201526064015b60405180910390fd5b6001600160581b0319891661144157604051631a0a9b9f60e21b815260040160405180910390fd5b8861145081600160f81b613656565b8015611465575061146581600160f91b613656565b15611483576040516361c4e91b60e11b815260040160405180910390fd5b61148c8a61374b565b60408051808201909152600181526001600160a01b038a166020820152825463ffffffff60a81b1916600160a81b1783556114cb8b828b8b8b8b6137ad565b60005b8481101561157b576000308787848181106114eb576114eb616abf565b90506020028101906114fd9190616a57565b60405161150b929190616ad5565b6000604051808303816000865af19150503d8060008114611548576040519150601f19603f3d011682016040523d82523d6000602084013e61154d565b606091505b505090508061157257604051636534eae560e11b815260048101839052602401611410565b506001016114ce565b505050505050505050505050565b6000611596610fd261320e565b9050336001600160a01b037f000000000000000000000000000000000000000000000000000000000000000016148015906115d15750333014155b1561181d5760405163ecd0596160e01b81526004808201526001600160a01b0382169063ecd0596190602401602060405180830381865afa15801561161a573d6000803e3d6000fd5b505050506040513d601f19601f8201168201806040525081019061163e9190616a9d565b156111765760405163d68f602560e01b81526000906001600160a01b0383169063d68f60259061167890339034908690369060040161690d565b6000604051808303816000875af1158015611697573d6000803e3d6000fd5b505050506040513d6000823e601f3d908101601f191682016040526116bf9190810190616966565b905060006116cb61320e565b90506001600160581b031989166116f557604051631a0a9b9f60e21b815260040160405180910390fd5b8861170481600160f81b613656565b8015611719575061171981600160f91b613656565b15611737576040516361c4e91b60e11b815260040160405180910390fd5b6117408a61374b565b600061174a61320e565b6001600160581b03198c1660009081526001919091016020526040902054600160201b90046001600160a01b0316036117b757604080518082019091528254600160a81b900463ffffffff1681526001600160a01b038a1660208201526117b58b828b8b8b8b6137ad565b505b5050604051630b9dfbed60e11b81526001600160a01b0383169063173bf7da906117e590849060040161663d565b600060405180830381600087803b1580156117ff57600080fd5b505af1158015611813573d6000803e3d6000fd5b505050505061116d565b600061182761320e565b90506001600160581b0319881661185157604051631a0a9b9f60e21b815260040160405180910390fd5b8761186081600160f81b613656565b8015611875575061187581600160f91b613656565b15611893576040516361c4e91b60e11b815260040160405180910390fd5b61189c8961374b565b60006118a661320e565b6001600160581b03198b1660009081526001919091016020526040902054600160201b90046001600160a01b03160361191357604080518082019091528254600160a81b900463ffffffff1681526001600160a01b03891660208201526119118a828a8a8a8a6137ad565b505b505050505050505050565b60408051606081018252600080825260208201819052918101919091526119448261087d565b6040805160608101825282546001600160a01b0390811682526001909301549283166020820152600160a01b90920460f81b6001600160f81b0319169082015292915050565b600061199461320e565b6001600160581b031984166000908152600291909101602090815260408083206001600160e01b03198616845290915290205460ff16905092915050565b6040805160208101909152600081526119ea82613232565b604080516020810190915290546001600160a01b0316815292915050565b600f60f81b6060806000808083611a54604080518082018252600681526512d95c9b995b60d21b60208083019190915282518084019093526005835264302e332e3160d81b9083015291565b97989097965046955030945091925090565b336001600160a01b037f00000000000000000000000000000000000000000000000000000000000000001614611aaf576040516348f5c3ed60e01b815260040160405180910390fd5b6000818152602081905260409020546060906001600160a01b031660018114611afa57611af78134611ae46060880188616a57565b611af29160049082906169d8565b6108b7565b91505b600080611b2130611b0e6060890189616a57565b611b1c9160049082906169d8565b6109a3565b9150915081611b435760405163f21e646b60e01b815260040160405180910390fd5b6001600160a01b038316600114610a2c57610a2c83856109d2565b6000611b6861320e565b54600160c81b900463ffffffff16919050565b6000611b88610fd261320e565b9050336001600160a01b037f00000000000000000000000000000000000000000000000000000000000000001614801590611bc35750333014155b15611d265760405163ecd0596160e01b81526004808201526001600160a01b0382169063ecd0596190602401602060405180830381865afa158015611c0c573d6000803e3d6000fd5b505050506040513d601f19601f82011682018060405250810190611c309190616a9d565b156111765760405163d68f602560e01b81526000906001600160a01b0383169063d68f602590611c6a90339034908690369060040161690d565b6000604051808303816000875af1158015611c89573d6000803e3d6000fd5b505050506040513d6000823e601f3d908101601f19168201604052611cb19190810190616966565b9050611cc2898989898989896139fc565b604051630b9dfbed60e11b81526001600160a01b0383169063173bf7da90611cee90849060040161663d565b600060405180830381600087803b158015611d0857600080fd5b505af1158015611d1c573d6000803e3d6000fd5b5050505050611d35565b611d35888888888888886139fc565b5050505050505050565b6000611d4c610fd261320e565b9050336001600160a01b037f00000000000000000000000000000000000000000000000000000000000000001614801590611d875750333014155b156122265760405163ecd0596160e01b81526004808201526001600160a01b0382169063ecd0596190602401602060405180830381865afa158015611dd0573d6000803e3d6000fd5b505050506040513d601f19601f82011682018060405250810190611df49190616a9d565b156111765760405163d68f602560e01b81526000906001600160a01b0383169063d68f602590611e2e90339034908690369060040161690d565b6000604051808303816000875af1158015611e4d573d6000803e3d6000fd5b505050506040513d6000823e601f3d908101601f19168201604052611e759190810190616966565b905060018603611fb2576000611e8961320e565b90506000611e9d8760581b600160f81b1790565b82546001600160581b03198216600090815260018501602052604090205491925063ffffffff600160a81b9091048116911603611efd578154600163ffffffff600160a81b808404821692909201160263ffffffff60a81b199091161782555b604080518082019091528254600160a81b900463ffffffff16815260009060208101611f2c6014848a8c6169d8565b611f3591616ae5565b60601c9052905060148781013588016034818101929182013591818b01358b0180830192908201359160548d01358d01918201910135611f798888888888886137ad565b6004819003611fa457611fa488611f946004600085876169d8565b611f9d91616a02565b6001613aa0565b5050505050505050506121c2565b6002860361201957601484810135850160348181019291820135918188013588019182019181013590600090611fea90828a8c6169d8565b611ff391616ae5565b60601c90506120048a868684613b33565b61200f818484613b99565b50505050506121c2565b600386036120a9576018848101358501603881810192918201359181880135880191820191013561207c612051600460008a8c6169d8565b61205a91616a02565b8a612069601860048c8e6169d8565b61207291616ae5565b60601c8787613d6a565b6120a061208d601860048a8c6169d8565b61209691616ae5565b60601c8383613b99565b505050506121c2565b6004860361213d576040516306d61fe760e41b81526001600160a01b03861690636d61fe70906120df9087908790600401616b25565b600060405180830381600087803b1580156120f957600080fd5b505af115801561210d573d6000803e3d6000fd5b50505050600080516020616f658339815191528686604051612130929190616b39565b60405180910390a16121c2565b60058603612173576040516306d61fe760e41b81526001600160a01b03861690636d61fe70906120df9087908790600401616b25565b600686036121a9576040516306d61fe760e41b81526001600160a01b03861690636d61fe70906120df9087908790600401616b25565b604051631092ef5760e11b815260040160405180910390fd5b604051630b9dfbed60e11b81526001600160a01b0383169063173bf7da906121ee90849060040161663d565b600060405180830381600087803b15801561220857600080fd5b505af115801561221c573d6000803e3d6000fd5b5050505050612518565b6001850361235157600061223861320e565b9050600061224c8660581b600160f81b1790565b82546001600160581b03198216600090815260018501602052604090205491925063ffffffff600160a81b90910481169116036122ac578154600163ffffffff600160a81b808404821692909201160263ffffffff60a81b199091161782555b604080518082019091528254600160a81b900463ffffffff168152600090602081016122db601484898b6169d8565b6122e491616ae5565b60601c9052905060148681013587016034818101929182013591818a01358a0180830192908201359160548c01358c019182019101356123288888888888886137ad565b60048190036123435761234388611f946004600085876169d8565b505050505050505050612518565b600285036123ae576014838101358401603481810192918201359181870135870191820191810135906000906123899082898b6169d8565b61239291616ae5565b60601c90506123a389868684613b33565b61221c818484613b99565b6003850361241857601883810135840160388181019291820135918187013587019182019101356123fe6123e660046000898b6169d8565b6123ef91616a02565b89612069601860048b8d6169d8565b61240f61208d60186004898b6169d8565b50505050612518565b600485036124ac576040516306d61fe760e41b81526001600160a01b03851690636d61fe709061244e9086908690600401616b25565b600060405180830381600087803b15801561246857600080fd5b505af115801561247c573d6000803e3d6000fd5b50505050600080516020616f65833981519152858560405161249f929190616b39565b60405180910390a1612518565b600585036124e2576040516306d61fe760e41b81526001600160a01b03851690636d61fe709061244e9086908690600401616b25565b600685036121a9576040516306d61fe760e41b81526001600160a01b03851690636d61fe709061244e9086908690600401616b25565b5050505050565b600061252c610fd261320e565b9050336001600160a01b037f000000000000000000000000000000000000000000000000000000000000000016148015906125675750333014155b156128ed5760405163ecd0596160e01b81526004808201526001600160a01b0382169063ecd0596190602401602060405180830381865afa1580156125b0573d6000803e3d6000fd5b505050506040513d601f19601f820116820180604052508101906125d49190616a9d565b156111765760405163d68f602560e01b81526000906001600160a01b0383169063d68f60259061260e90339034908690369060040161690d565b6000604051808303816000875af115801561262d573d6000803e3d6000fd5b505050506040513d6000823e601f3d908101601f191682016040526126559190810190616966565b9050856001036126855760006126718660581b600160f81b1790565b905061267e818686613edb565b50506121c2565b8560020361269e5761269885858561401f565b506121c2565b856003036126d65760006126b560048286886169d8565b6126be91616a02565b905061267e816126d1866004818a6169d8565b6140bb565b856004036127f35760006126e861320e565b5460581b90506001600160a01b03861661270061320e565b6001600160581b0319831660009081526001919091016020526040902054600160201b90046001600160a01b03160361278557600161273d61320e565b6001600160581b0319831660009081526001919091016020526040902080546001600160a01b0392909216600160201b02640100000000600160c01b03199092169190911790555b6127c58686868080601f0160208091040260200160405190810160405280939291908181526020018383808284376000920191909152506141a192505050565b50600080516020616f8583398151915287876040516127e5929190616b39565b60405180910390a1506121c2565b856005036128db57600061280561320e565b5460581b9050600061281a60208287896169d8565b61282391616b50565b9050612834825b600160f91b61093c565b1561286c576128438260081b90565b6001600160e01b031916810361286c576040516313002bdd60e31b815260040160405180910390fd5b6128ac8787878080601f0160208091040260200160405190810160405280939291908181526020018383808284376000920191909152506141a192505050565b50600080516020616f8583398151915288886040516128cc929190616b39565b60405180910390a150506121c2565b856006036121a957600061280561320e565b8460010361291b5760006129078560581b600160f81b1790565b9050612914818585613edb565b5050612518565b846002036129345761292e84848461401f565b50612518565b8460030361296757600061294b60048285876169d8565b61295491616a02565b9050612914816126d185600481896169d8565b84600403612a8457600061297961320e565b5460581b90506001600160a01b03851661299161320e565b6001600160581b0319831660009081526001919091016020526040902054600160201b90046001600160a01b031603612a165760016129ce61320e565b6001600160581b0319831660009081526001919091016020526040902080546001600160a01b0392909216600160201b02640100000000600160c01b03199092169190911790555b612a568585858080601f0160208091040260200160405190810160405280939291908181526020018383808284376000920191909152506141a192505050565b50600080516020616f858339815191528686604051612a76929190616b39565b60405180910390a150612518565b84600503612b66576000612a9661320e565b5460581b90506000612aab60208286886169d8565b612ab491616b50565b9050612abf8261282a565b15612af757612ace8260081b90565b6001600160e01b0319168103612af7576040516313002bdd60e31b815260040160405180910390fd5b612b378686868080601f0160208091040260200160405190810160405280939291908181526020018383808284376000920191909152506141a192505050565b50600080516020616f858339815191528787604051612b57929190616b39565b60405180910390a15050612518565b846006036121a9576000612a9661320e565b6000612b8261320e565b54600160a81b900463ffffffff16919050565b6040805180820190915260008082526020820152612bb161320e565b6001600160581b03199290921660009081526001909201602090815260409283902083518085019094525463ffffffff81168452600160201b90046001600160a01b0316908301525090565b60408051606080820183526000808352602083015291810191909152612c2161320e565b6001600160e01b03198316600090815260039190910160209081526040918290208251606081018452815460f081901b6001600160f01b03191682526201000090046001600160a01b03168184015260018201805485518186028101860187528181529295939493860193830182828015612cc957602002820191906000526020600020905b815460501b6001600160501b0319168152600190910190602001808311612ca7575b5050505050815250509050919050565b600081600881901b603082901b605083901b612cf984600160f81b613656565b8015612d0b5750612d0b846000613656565b8015612d245750612d24846001600160f81b0319613656565b8015612d395750612d3984607f60f91b613656565b15612d4a5750600095945050505050565b6001600160f81b03198316600160f81b14801590612d7157506001600160f81b0319831615155b15612d825750600095945050505050565b6001600160e01b0319821615612d9e5750600095945050505050565b6001600160501b0319811615612dba5750600095945050505050565b50600195945050505050565b60606000612dd333613232565b546001600160a01b0316905080612dfd5760405163710c949760e01b815260040160405180910390fd5b60606001600160a01b038216600114612e2057612e1d82346000366108b7565b90505b612e2b868686614248565b92506001600160a01b038216600114612e4857612e4882826109d2565b50509392505050565b6000612e5e610fd261320e565b9050336001600160a01b037f00000000000000000000000000000000000000000000000000000000000000001614801590612e995750333014155b156130085760405163ecd0596160e01b81526004808201526001600160a01b0382169063ecd0596190602401602060405180830381865afa158015612ee2573d6000803e3d6000fd5b505050506040513d601f19601f82011682018060405250810190612f069190616a9d565b156111765760405163d68f602560e01b81526000906001600160a01b0383169063d68f602590612f4090339034908690369060040161690d565b6000604051808303816000875af1158015612f5f573d6000803e3d6000fd5b505050506040513d6000823e601f3d908101601f19168201604052612f879190810190616966565b90506000612f96888888613edb565b9050612fa3818686614590565b50604051630b9dfbed60e11b81526001600160a01b0383169063173bf7da90612fd090849060040161663d565b600060405180830381600087803b158015612fea57600080fd5b505af1158015612ffe573d6000803e3d6000fd5b5050505050610a2c565b6000613015878787613edb565b905061116d818585614590565b600061302f610fd261320e565b9050336001600160a01b037f0000000000000000000000000000000000000000000000000000000000000000161480159061306a5750333014155b156131ca5760405163ecd0596160e01b81526004808201526001600160a01b0382169063ecd0596190602401602060405180830381865afa1580156130b3573d6000803e3d6000fd5b505050506040513d601f19601f820116820180604052508101906130d79190616a9d565b156111765760405163d68f602560e01b81526000906001600160a01b0383169063d68f60259061311190339034908690369060040161690d565b6000604051808303816000875af1158015613130573d6000803e3d6000fd5b505050506040513d6000823e601f3d908101601f191682016040526131589190810190616966565b9050613165858585614248565b50604051630b9dfbed60e11b81526001600160a01b0383169063173bf7da9061319290849060040161663d565b600060405180830381600087803b1580156131ac57600080fd5b505af11580156131c0573d6000803e3d6000fd5b50505050506131d5565b612518848484614248565b50505050565b60006131e561320e565b5460581b919050565b6000600782101561320157506001919050565b506000919050565b919050565b7f7bcaa2ced2a71450ed5a9a1b4848e8e5206dbc3f06011e595f7f55428cc6f84f90565b6001600160a01b031660009081527f1bbee3173dbdc223633258c9f337a0fff8115f206d302bea0ed3eac003b68b866020526040902090565b813536600060f883901c801561329057600181146132a557600281146132b657600080fd5b600093506001860192506001850391506132d0565b6015860192506015850391506132d0565b6001600160d81b0319841693506005860192506005850391505b509250925092565b604080517f1547321c374afde8a591d972a084b071c594c275e36724931ff96c25f2999c83602082015290810182905260009061094d906060015b60405160208183030381529060405280519060200120614659565b60008060003660006133438a8a8a8a8a614771565b93509350935093506000806133578561487d565b50915091508165ffffffffffff1642108061337957508065ffffffffffff1642115b1561339557506001600160e01b03199550610933945050505050565b6001600160a01b03861663392dffaf6001600160e01b03198e168d6133b98e6132d8565b88886040518663ffffffff1660e01b81526004016133db959493929190616b6e565b602060405180830381865afa1580156133f8573d6000803e3d6000fd5b505050506040513d601f19601f8201168201806040525081019061341c9190616a3a565b9c9b505050505050505050505050565b80600881901b8060ff60f084901c166001198101613452576001600160d81b0319821691505b509193909250565b60008061346561320e565b9050600061347285616bf8565b9050366000613485610100880188616a57565b909250905061349889600160f81b61093c565b156134f6576134b4886134af6101008a018a616a57565b6148b0565b604080516020601f8401819004810282018101909252828152939850919450925083908390819084018382808284376000920191909152505050506101008401525b8761350581600160f81b61093c565b156135945761358d866135188b60581c90565b6001600160a01b03166397003203878b6040518363ffffffff1660e01b8152600401613545929190616d9b565b6020604051808303816000875af1158015613564573d6000803e3d6000fd5b505050506040513d601f19601f820116820180604052508101906135889190616dbd565b6148dd565b9550613649565b60006135a08a60081b90565b6001600160e01b03198116600090815260038801602052604090205490915060f01b600160f01b16156135e6576040516314b9743f60e01b815260040160405180910390fd5b6000806135f58388888861499b565b9150915061360389836148dd565b985061364389826001600160a01b0316630ccab7a1866001600160e01b0319168b8f6040518463ffffffff1660e01b815260040161354593929190616dd6565b98505050505b5050505050949350505050565b6001600160f81b03199081169116141590565b600061367361320e565b805490915063ffffffff8084169161369591600a91600160a81b900416616dff565b63ffffffff1610156136ba5760405163e60fd64760e01b815260040160405180910390fd5b805463ffffffff600160c81b9091048116908316116136ec57604051633ab3447f60e11b815260040160405180910390fd5b805463ffffffff60c81b1916600160c81b63ffffffff8481168202929092178084559081048216600160a81b909104909116101561119857805463ffffffff60a81b198116600160c81b90910463ffffffff16600160a81b0217905550565b600061375561320e565b80546001600160a81b031916605884901c1781556040516001600160581b0319841681529091507f6789ec0c85d6458d897a36a70129b101f8b4d84c6e218046c3107373dbcbae889060200160405180910390a15050565b60006137b761320e565b80546001600160581b03198916600090815260018301602052604090205491925063ffffffff600160a81b9091048116911603613817578054600163ffffffff600160a81b808404821692909201160263ffffffff60a81b199091161781555b60208601516001600160a01b031661383157600160208701525b85518154600160a81b900463ffffffff9081169116141580613879575085516001600160581b03198816600090815260018301602052604090205463ffffffff918216911610155b1561389757604051633ab3447f60e11b815260040160405180910390fd5b6001600160581b03198716600090815260018083016020908152604090922088518154938a01516001600160a01b0316600160201b81026001600160c01b031990951663ffffffff90921691909117939093179055146139005761390086602001518484613b99565b8661390f81600160f81b61093c565b156139b15760006139208960581c90565b6040516306d61fe760e41b81529091506001600160a01b03821690636d61fe7090613951908a908a90600401616b25565b600060405180830381600087803b15801561396b57600080fd5b505af115801561397f573d6000803e3d6000fd5b50505050600080516020616f658339815191526001826040516139a3929190616b39565b60405180910390a150611d35565b6139bf81600160f91b61093c565b156139e35760006139d08960081b90565b90506139dd818888614c7b565b50611d35565b6040516361c4e91b60e11b815260040160405180910390fd5b60005b86811015611d3557613a98888883818110613a1c57613a1c616abf565b9050602002016020810190613a319190616650565b878381518110613a4357613a43616abf565b6020026020010151878785818110613a5d57613a5d616abf565b9050602002810190613a6f9190616a57565b878787818110613a8157613a81616abf565b9050602002810190613a939190616a57565b6137ad565b6001016139ff565b6000613aaa61320e565b6001600160581b03198516600081815260028301602090815260408083206001600160e01b0319891680855290835292819020805488151560ff1990911681179091558151938452918301939093528183015290519192507f9d17cd6d095ac90a655405ab29f30a7ee7e88ef3974c1bf7544bf591043bb71a919081900360600190a150505050565b613b3d84826150d4565b6040516306d61fe760e41b81526001600160a01b03851690636d61fe7090613b6b9086908690600401616b25565b600060405180830381600087803b158015613b8557600080fd5b505af1158015611d35573d6000803e3d6000fd5b6001600160a01b0383161580613bb857506001600160a01b0383166001145b15613bc257505050565b60405163d60b347f60e01b81523060048201526001600160a01b0384169063d60b347f90602401602060405180830381865afa158015613c06573d6000803e3d6000fd5b505050506040513d601f19601f82011682018060405250810190613c2a9190616a9d565b613c9e576001600160a01b038316636d61fe70613c4a83600181876169d8565b6040518363ffffffff1660e01b8152600401613c67929190616b25565b600060405180830381600087803b158015613c8157600080fd5b505af1158015613c95573d6000803e3d6000fd5b50505050613d3d565b6001600160f81b03198282600081613cb857613cb8616abf565b9050013560f81c60f81b6001600160f81b03191603613d3d576001600160a01b038316636d61fe70613ced83600181876169d8565b6040518363ffffffff1660e01b8152600401613d0a929190616b25565b600060405180830381600087803b158015613d2457600080fd5b505af1158015613d38573d6000803e3d6000fd5b505050505b600080516020616f65833981519152600484604051613d5d929190616b39565b60405180910390a1505050565b6001600160a01b038316613d83576001600160a01b0392505b6000613d8e8661087d565b9050600083836000818110613da557613da5616abf565b9050013560f81c60f81b9050613dbf81600060f81b61093c565b15613e5c576001600160a01b038616636d61fe70613de085600181896169d8565b6040518363ffffffff1660e01b8152600401613dfd929190616b25565b600060405180830381600087803b158015613e1757600080fd5b505af1158015613e2b573d6000803e3d6000fd5b50505050600080516020616f65833981519152600387604051613e4f929190616b39565b60405180910390a1613e8c565b613e6e816001600160f81b0319613656565b15613e8c57604051632d6a6bb760e01b815260040160405180910390fd5b81546001600160a01b039586166001600160a01b03199091161782556001909101805460f89290921c600160a01b026001600160a81b0319909216959094169490941793909317909155505050565b600080613ee661320e565b805490915060581b6001600160581b031990811690861603613f1b576040516313002bdd60e31b815260040160405180910390fd5b6001600160581b03198516600090815260018201602052604090208054640100000000600160c01b03198116909155600160201b90046001600160a01b0316915084613f6b81600160f81b61093c565b15613fed576000613f7c8760581c90565b9050613fbe8187878080601f0160208091040260200160405190810160405280939291908181526020018383808284376000920191909152506141a192505050565b50600080516020616f85833981519152600182604051613fdf929190616b39565b60405180910390a150612e48565b613ffb81600160f91b61093c565b156139e357600061400c8760081b90565b905061401981878761512e565b50612e48565b60008061402b85613232565b80546001600160a01b031981168255604080516020601f88018190048102820181019092528681526001600160a01b03909216945091925061408a9187919087908790819084018382808284376000920191909152506141a192505050565b50600080516020616f858339815191526002866040516140ab929190616b39565b60405180910390a1509392505050565b6000806140c78561087d565b80546001600160a01b03198116825560018201546001600160a01b03909116935090915061410090600160a01b900460f81b600061093c565b15614189576001810154604080516020601f8701819004810282018101909252858152614151926001600160a01b03169187908790819084018382808284376000920191909152506141a192505050565b506001810154604051600080516020616f8583398151915291614180916003916001600160a01b031690616b39565b60405180910390a15b60010180546001600160a81b03191690559392505050565b60006141fb835a600080638a91b0e360e01b876040516024016141c4919061663d565b60408051601f198184030181529190526020810180516001600160e01b03166001600160e01b0319909316929092179091526152f8565b50604080516001600160a01b038616815282151560208201529192507f2b82f87bf66300af618a9621d3f221edfab735f5bacb4e004cce1b62375396c3910160405180910390a192915050565b606083600881901b61425e82600160f81b61093c565b156142e8578435850160208101903561427883600061093c565b1561428e576142878282615382565b94506142e1565b61429c83600160f81b61093c565b156142ab576142878282615452565b60405162461bcd60e51b815260206004820152600b60248201526a155b9cdd5c1c1bdc9d195960aa1b6044820152606401611410565b5050612e48565b6142f382600061093c565b1561442157600080366000614308898961557f565b6040805160018082528183019092529498509296509094509250816020015b6060815260200190600190039081614327579050509650600061434a868261093c565b1561437e5761435b858585856155d0565b8860008151811061436e5761436e616abf565b6020026020010181905250614417565b61438c86600160f81b61093c565b156142ab5761439d85858585615606565b896000815181106143b0576143b0616abf565b6020908102919091010152905080614417577fe723f28f104e46b47fd3531f3608374ac226bcf3ddda334a23a266453e0efdb76000896000815181106143f8576143f8616abf565b602002602001015160405161440e929190616e29565b60405180910390a15b5050505050612e48565b614433826001600160f81b031961093c565b156142ab5760408051600180825281830190925290816020015b606081526020019060019003908161444d579050509250600061447360148287896169d8565b61447c91616ae5565b60601c9050366000614491876014818b6169d8565b9150915060006144a28484846109a3565b886000815181106144b5576144b5616abf565b602090810291909101015290506144d085600160f81b61093c565b15614534578061452f577fe723f28f104e46b47fd3531f3608374ac226bcf3ddda334a23a266453e0efdb760008860008151811061451057614510616abf565b6020026020010151604051614526929190616e29565b60405180910390a15b614587565b61453f85600061093c565b156142ab578061452f5760405162461bcd60e51b815260206004820152601360248201527211195b1959d85d1958d85b1b0819985a5b1959606a1b6044820152606401611410565b50505050612e48565b6001600160a01b03831615806145af57506001600160a01b0383166001145b156145b957505050565b6001600160f81b031982826000816145d3576145d3616abf565b9050013560f81c60f81b6001600160f81b0319160361463957614637836145fd83600181876169d8565b8080601f0160208091040260200160405190810160405280939291908181526020018383808284376000920191909152506141a192505050565b505b600080516020616f85833981519152600484604051613d5d929190616b39565b7f00000000000000000000000000000000000000000000000000000000000000007f000000000000000000000000000000000000000000000000000000000000000030147f000000000000000000000000000000000000000000000000000000000000000046141661474c5750604080517f8b73c3c69bb8fe3d512ecc4cf759cc79239f7b179b0ffacaa9a75d522b39400f81527f000000000000000000000000000000000000000000000000000000000000000060208201527f00000000000000000000000000000000000000000000000000000000000000009181019190915246606082015230608082015260a090205b67190100000000000060005280601a5281603a52604260182090506000603a52919050565b6000803660008061478061320e565b60408051610120810182526000808252602082018190529181018290526080810182905260a0810191909152606060c082018190526001600160e01b03198d16908201526001600160a01b038b1660e082015261010081018a90529091506147ea81838a8a615637565b878760008181106147fd576147fd616abf565b9091013560f81c60ff1490506148265760405163b32eeb6960e01b815260040160405180910390fd5b614833876001818b6169d8565b60608301516001600160e01b0319166000908152600394909401602052604093849020549390920151620100009093046001600160a01b03169c929b509950975095505050505050565b600060a082901c65ffffffffffff1682811560001981016148a25765ffffffffffff92505b508360d01c92509193909250565b60003660006148c08686866158a4565b925050506094830135830160348101906014013593509350939050565b600081830160601b8260601b81148460601b8214176001600160a01b03848618161517600181146149115760019250614993565b6001600160d01b031980851690861681811881831102188686176001600160a01b031617935065ffffffffffff60a01b861690816149565765ffffffffffff60a01b91505b5065ffffffffffff60a01b851680614974575065ffffffffffff60a01b5b80821890821102188061498d575065ffffffffffff60a01b5b92909217915b505092915050565b60008060006149a861320e565b6001600160e01b03198816600090815260038201602052604081209192506001909101905b8154811015614bbf57600080614a068484815481106149ee576149ee616abf565b60009182526020909120015460501b90605082901c90565b91509150600089896000818110614a1f57614a1f616abf565b919091013560f81c915050838103614ab2576000614a41600960018c8e6169d8565b614a4a91616e42565b60c01c9050614a5f6009808301908c8e6169d8565b8080601f0160208091040260200160405190810160405280939291908181526020018383808284376000920191909152505050506101008d0152614aa88a60098301818e6169d8565b9a509a5050614aec565b838160ff161015614ad657604051630760bdcf60e11b815260040160405180910390fd5b6040805160208101909152600081526101008c01525b600160f01b8316600003614bb4576000826001600160a01b0316637129edce8e6001600160e01b0319168e6040518363ffffffff1660e01b8152600401614b34929190616e78565b6020604051808303816000875af1158015614b53573d6000803e3d6000fd5b505050506040513d601f19601f82011682018060405250810190614b779190616dbd565b9050806001600160a01b03811615614ba557604051631f24c1fb60e11b815260048101879052602401611410565b614baf8a836148dd565b995050505b5050506001016149cd565b5085856000818110614bd357614bd3616abf565b9091013560f81c60ff149050614bfc5760405163b32eeb6960e01b815260040160405180910390fd5b614c0985600181896169d8565b8080601f01602080910402602001604051908101604052809392919081815260200183838082843760009201829052506101008c01949094525050506001600160e01b03198916815260039092016020525060409020546001600160a01b036201000090910416905094509492505050565b6000614c8561320e565b90508235830160208101903560fe811180614c9e575080155b15614cbc5760405163b62d956d60e01b815260040160405180910390fd5b6001600160e01b03198616600090815260038401602052604090206001015415614d0a576001600160e01b0319861660009081526003840160205260408120614d0a91600190910190615e77565b60005b6000198201811015614efe576001600160e01b0319871660009081526003850160205260409020600101838383818110614d4957614d49616abf565b9050602002810190614d5b9190616a57565b614d6a916016916000916169d8565b614d7391616e91565b81546001810183556000928352602090922090910180546001600160b01b03191660509290921c919091179055828282818110614db257614db2616abf565b9050602002810190614dc49190616a57565b614dd3916016916002916169d8565b614ddc91616ae5565b60601c636d61fe706001600160e01b03198916858585818110614e0157614e01616abf565b9050602002810190614e139190616a57565b614e219160169082906169d8565b604051602001614e3393929190616ec7565b6040516020818303038152906040526040518263ffffffff1660e01b8152600401614e5e919061663d565b600060405180830381600087803b158015614e7857600080fd5b505af1158015614e8c573d6000803e3d6000fd5b50505050600080516020616f658339815191526005848484818110614eb357614eb3616abf565b9050602002810190614ec59190616a57565b614ed4916016916002916169d8565b614edd91616ae5565b60601c604051614eee929190616b39565b60405180910390a1600101614d0d565b50600082826000198101818110614f1757614f17616abf565b9050602002810190614f299190616a57565b614f38916016916002916169d8565b614f4191616ae5565b6001600160e01b031988166000908152600386016020526040902080546201000060609390931c92830262010000600160b01b0319909116179055905082826000198101818110614f9457614f94616abf565b9050602002810190614fa69190616a57565b614fb5916002916000916169d8565b614fbe91616ee1565b6001600160e01b0319881660008181526003870160205260409020805461ffff191660f09390931c929092179091556001600160a01b03821690636d61fe70908585600019810181811061501457615014616abf565b90506020028101906150269190616a57565b6150349160169082906169d8565b60405160200161504693929190616ec7565b6040516020818303038152906040526040518263ffffffff1660e01b8152600401615071919061663d565b600060405180830381600087803b15801561508b57600080fd5b505af115801561509f573d6000803e3d6000fd5b50505050600080516020616f658339815191526006826040516150c3929190616b39565b60405180910390a150505050505050565b6001600160a01b0381166150e6575060015b60006150f183613232565b80546001600160a01b0319166001600160a01b038416178155604051909150600080516020616f6583398151915290613d5d906002908690616b39565b81358201602081019035600061514261320e565b6001600160e01b031987166000908152600391909101602052604090206001808201549192500182146151885760405163013dcc8d60e31b815260040160405180910390fd5b6001810160005b815481101561523d5760006151af8383815481106149ee576149ee616abf565b91505061520b818a6001600160e01b0319168888868181106151d3576151d3616abf565b90506020028101906151e59190616a57565b6040516020016151f793929190616ec7565b6040516020818303038152906040526141a1565b50600080516020616f8583398151915260058260405161522c929190616b39565b60405180910390a15060010161518f565b5061524661320e565b6001600160e01b0319881660009081526003919091016020526040812061527291600190910190615e77565b81546152a8906201000090046001600160a01b03166001600160e01b03198916868660001981018181106151d3576151d3616abf565b508154604051600080516020616f85833981519152916152da916006916201000090046001600160a01b031690616b39565b60405180910390a15080546001600160b01b03191690555050505050565b6000606060008060008661ffff166001600160401b0381111561531d5761531d616431565b6040519080825280601f01601f191660200182016040528015615347576020820181803683370190505b5090506000808751602089018b8e8ef191503d925086831115615368578692505b828152826000602083013e90999098509650505050505050565b606081806001600160401b0381111561539d5761539d616431565b6040519080825280602002602001820160405280156153d057816020015b60608152602001906001900390816153bb5790505b50915060005b8181101561499357368585838181106153f1576153f1616abf565b90506020028101906154039190616f17565b905061542c61541560208301836160c6565b60208301356154276040850185616a57565b6155d0565b84838151811061543e5761543e616abf565b6020908102919091010152506001016153d6565b606081806001600160401b0381111561546d5761546d616431565b6040519080825280602002602001820160405280156154a057816020015b606081526020019060019003908161548b5790505b50915060005b8181101561499357368585838181106154c1576154c1616abf565b90506020028101906154d39190616f17565b905060006154fe6154e760208401846160c6565b60208401356154f96040860186616a57565b615606565b86858151811061551057615510616abf565b6020908102919091010152905080615575577fe723f28f104e46b47fd3531f3608374ac226bcf3ddda334a23a266453e0efdb78386858151811061555657615556616abf565b602002602001015160405161556c929190616e29565b60405180910390a15b50506001016154a6565b600080368161559160148287896169d8565b61559a91616ae5565b60601c93506155ad6034601487896169d8565b6155b691616b50565b92506155c585603481896169d8565b949793965094505050565b60405181838237600038838387895af16155ed573d6000823e3d81fd5b3d8152602081013d6000823e3d01604052949350505050565b604051600090828482376000388483888a5af191503d8152602081013d6000823e3d81016040525094509492505050565b60608401516001600160e01b03191660009081526003840160205260408120600101905b8154811015610a2c576156798282815481106149ee576149ee616abf565b6001600160a01b031660a08801526001600160f01b031916608087015283836000816156a7576156a7616abf565b919091013560f81c8088528290039050615744576156c96009600185876169d8565b6156d291616e42565b60c01c602087018190526156ed9060099081019085876169d8565b8080601f01602080910402602001604051908101604052809392919081815260200183838082843760009201919091525050505060c0870152602086015161573b90849060090181876169d8565b935093506157b0565b855160ff1681111561576957604051630760bdcf60e11b815260040160405180910390fd5b61577660008085876169d8565b8080601f01602080910402602001604051908101604052809392919081815260200183838082843760009201919091525050505060c08701525b6080860151600160f11b1660000361589c5760a0860151606087015160e088015161010089015160c08a015160405163184dfdbb60e11b81526000956001600160a01b03169463309bfb7694615817946001600160e01b0319909216939092600401616f37565b602060405180830381865afa158015615834573d6000803e3d6000fd5b505050506040513d601f19601f820116820180604052508101906158589190616dbd565b9050806001600160a01b0381161561588657604051631f24c1fb60e11b815260048101849052602401611410565b6158948860400151836148dd565b604089015250505b60010161565b565b600036600080366000366000366000806158bf8e8e8e61592a565b9750975097509750975097509750975060748d013560348e0101995060208a033598506158ed818b8b615adf565b9a506158fd8e89898989896137ad565b6159078383615c7f565b6159198e611f946004600086886169d8565b505050505050505050509392505050565b604080518082019091526000808252602082015236600036600036600080600061595261320e565b9050615962601460008c8e6169d8565b61596b91616ae5565b60601c89602001906001600160a01b031690816001600160a01b0316815250508060000160159054906101000a900463ffffffff16896000019063ffffffff16908163ffffffff168152505060148b013560348c010197506020880335965060348b013560348c010195506020860335945060548b013560348c0101935060208403359250615acf7fb17ab1224aca0d4255ef8161acaf2ac121b8faa32a4b2258c912cc5f8308c50560001b8d8360000160159054906101000a900463ffffffff168c602001518c8c604051615a42929190616ad5565b60405180910390208b8b604051615a5a929190616ad5565b60405180910390208a8a604051615a72929190616ad5565b6040805191829003822060208301989098526001600160581b03199096169581019590955263ffffffff90931660608501526001600160a01b03909116608084015260a083015260c082015260e081019190915261010001613313565b9150509397509397509397509397565b600080615aea61320e565b805490915060581b6000615b0282600160f81b61093c565b15615b8e578254604051637aa8f17760e11b81526001600160a81b038216916001600160a01b03169063f551e2ee90615b459030908c908c908c9060040161690d565b602060405180830381865afa158015615b62573d6000803e3d6000fd5b505050506040513d601f19601f82011682018060405250810190615b869190616a3a565b915050615c44565b615b9c82600160f91b61093c565b156139e357825460601b6000615bb582308b8b8b614771565b60405163392dffaf60e01b8152919b5099509097509091506001600160a01b0382169063392dffaf90615bfe906001600160e01b031986169030908e908e908e90600401616b6e565b602060405180830381865afa158015615c1b573d6000803e3d6000fd5b505050506040513d601f19601f82011682018060405250810190615c3f9190616a3a565b925050505b630b135d3f60e11b6001600160e01b0319821614615c75576040516362467c7760e11b815260040160405180910390fd5b5050509392505050565b6000615c8e60048284866169d8565b615c9791616a02565b905060048210615e7257602c8210615e2b57366000818180615cbd60186004898b6169d8565b615cc691616ae5565b60601c9050602c880135604c890101945060208503359350604c880135604c890101925060208303359150615d1b85856000818110615d0757615d07616abf565b9050013560f81c60f81b600060f81b61093c565b8015615d8b575060405163ecd0596160e01b8152600260048201526001600160a01b0382169063ecd0596190602401602060405180830381865afa158015615d67573d6000803e3d6000fd5b505050506040513d601f19601f82011682018060405250810190615d8b9190616a9d565b15615de157606c8801358801604c810190602c01356000615daf60148284866169d8565b615db891616ae5565b60601c9050615dc784826150d4565b615ddd81615dd884601481886169d8565b613b99565b5050505b615e078682615df4602c60188c8e6169d8565b615dfd91616ae5565b60601c8888613d6a565b611d35615e18602c60188a8c6169d8565b615e2191616ae5565b60601c8484613b99565b60048214615e725760405162461bcd60e51b8152602060048201526014602482015273496e76616c69642073656c6563746f724461746160601b6044820152606401611410565b505050565b5080546000825590600052602060002090810190615e959190615e98565b50565b5b80821115615ead5760008155600101615e99565b5090565b6001600160a01b0381168114615e9557600080fd5b803561320981615eb1565b60008083601f840112615ee357600080fd5b5081356001600160401b03811115615efa57600080fd5b602083019150836020828501011115615f1257600080fd5b9250929050565b60008060008060608587031215615f2f57600080fd5b843593506020850135615f4181615eb1565b925060408501356001600160401b03811115615f5c57600080fd5b615f6887828801615ed1565b95989497509550505050565b600080600080600060808688031215615f8c57600080fd5b8535615f9781615eb1565b94506020860135615fa781615eb1565b93506040860135925060608601356001600160401b03811115615fc957600080fd5b615fd588828901615ed1565b969995985093965092949392505050565b600080600060408486031215615ffb57600080fd5b8335925060208401356001600160401b0381111561601857600080fd5b61602486828701615ed1565b9497909650939450505050565b6000610120828403121561604457600080fd5b50919050565b60008060006060848603121561605f57600080fd5b83356001600160401b0381111561607557600080fd5b61608186828701616031565b9660208601359650604090950135949350505050565b803563ffffffff8116811461320957600080fd5b6000602082840312156160bd57600080fd5b610ca382616097565b6000602082840312156160d857600080fd5b8135610ca381615eb1565b80356001600160581b03198116811461320957600080fd5b60008083601f84011261610d57600080fd5b5081356001600160401b0381111561612457600080fd5b6020830191508360208260051b8501011115615f1257600080fd5b60008060008060008060008060a0898b03121561615b57600080fd5b616164896160e3565b9750602089013561617481615eb1565b965060408901356001600160401b0381111561618f57600080fd5b61619b8b828c01615ed1565b90975095505060608901356001600160401b038111156161ba57600080fd5b6161c68b828c01615ed1565b90955093505060808901356001600160401b038111156161e557600080fd5b6161f18b828c016160fb565b999c989b5096995094979396929594505050565b6000806000806000806080878903121561621e57600080fd5b616227876160e3565b9550602087013561623781615eb1565b945060408701356001600160401b0381111561625257600080fd5b61625e89828a01615ed1565b90955093505060608701356001600160401b0381111561627d57600080fd5b61628989828a01615ed1565b979a9699509497509295939492505050565b6001600160e01b031981168114615e9557600080fd5b6000602082840312156162c357600080fd5b8135610ca38161629b565b600080604083850312156162e157600080fd5b6162ea836160e3565b915060208301356162fa8161629b565b809150509250929050565b60005b83811015616320578181015183820152602001616308565b50506000910152565b60008151808452616341816020860160208601616305565b601f01601f19169290920160200192915050565b60ff60f81b8816815260e06020820152600061637460e0830189616329565b82810360408401526163868189616329565b606084018890526001600160a01b038716608085015260a0840186905283810360c08501528451808252602080870193509091019060005b818110156163dc5783518352602093840193909201916001016163be565b50909b9a5050505050505050505050565b6000806040838503121561640057600080fd5b82356001600160401b0381111561641657600080fd5b61642285828601616031565b95602094909401359450505050565b634e487b7160e01b600052604160045260246000fd5b604080519081016001600160401b038111828210171561646957616469616431565b60405290565b60405161012081016001600160401b038111828210171561646957616469616431565b604051601f8201601f191681016001600160401b03811182821017156164ba576164ba616431565b604052919050565b60008060008060008060006080888a0312156164dd57600080fd5b87356001600160401b038111156164f357600080fd5b6164ff8a828b016160fb565b90985096505060208801356001600160401b0381111561651e57600080fd5b8801601f81018a1361652f57600080fd5b80356001600160401b0381111561654857616548616431565b61655760208260051b01616492565b8082825260208201915060208360061b85010192508c83111561657957600080fd5b6020840193505b828410156165d5576040848e03121561659857600080fd5b6165a0616447565b6165a985616097565b815260208501356165b981615eb1565b8060208301525080835250602082019150604084019350616580565b975050505060408801356001600160401b038111156165f357600080fd5b6165ff8a828b016160fb565b90955093505060608801356001600160401b0381111561661e57600080fd5b61662a8a828b016160fb565b989b979a50959850939692959293505050565b602081526000610ca36020830184616329565b60006020828403121561666257600080fd5b610ca3826160e3565b60008060008060008060008060a0898b03121561668757600080fd5b883561669281615eb1565b975060208901356166a281615eb1565b965060408901356001600160401b038111156166bd57600080fd5b6166c98b828c016160fb565b90975095505060608901356001600160401b038111156166e857600080fd5b6166f48b828c016160fb565b90955093505060808901356001600160401b0381111561671357600080fd5b6161f18b828c01615ed1565b602080825282516001600160f01b03191682820152828101516001600160a01b03166040808401919091528301516060808401528051608084018190526000929190910190829060a08501905b808310156167985783516001600160501b0319168252602093840193600193909301929091019061676c565b5095945050505050565b6000602082840312156167b457600080fd5b5035919050565b6000602082016020835280845180835260408501915060408160051b86010192506020860160005b8281101561681457603f198786030184526167ff858351616329565b945060209384019391909101906001016167e3565b50929695505050505050565b60008060008060006060868803121561683857600080fd5b616841866160e3565b945060208601356001600160401b0381111561685c57600080fd5b61686888828901615ed1565b90955093505060408601356001600160401b03811115615fc957600080fd5b60008060008060008060a087890312156168a057600080fd5b86356168ab81615eb1565b955060208701356168bb81615eb1565b9450604087013593506060870135925060808701356001600160401b0381111561627d57600080fd5b81835281816020850137506000828201602090810191909152601f909101601f19169091010190565b60018060a01b03851681528360208201526060604082015260006169356060830184866168e4565b9695505050505050565b60006001600160401b0382111561695857616958616431565b50601f01601f191660200190565b60006020828403121561697857600080fd5b81516001600160401b0381111561698e57600080fd5b8201601f8101841361699f57600080fd5b80516169b26169ad8261693f565b616492565b8181528560208385010111156169c757600080fd5b610933826020830160208601616305565b600080858511156169e857600080fd5b838611156169f557600080fd5b5050820193919092039150565b80356001600160e01b03198116906004841015616a33576001600160e01b0319600485900360031b81901b82161691505b5092915050565b600060208284031215616a4c57600080fd5b8151610ca38161629b565b6000808335601e19843603018112616a6e57600080fd5b8301803591506001600160401b03821115616a8857600080fd5b602001915036819003821315615f1257600080fd5b600060208284031215616aaf57600080fd5b81518015158114610ca357600080fd5b634e487b7160e01b600052603260045260246000fd5b8183823760009101908152919050565b80356bffffffffffffffffffffffff198116906014841015616a33576bffffffffffffffffffffffff1960149490940360031b84901b1690921692915050565b602081526000610b016020830184866168e4565b9182526001600160a01b0316602082015260400190565b8035602083101561094d57600019602084900360031b1b1692915050565b85815260018060a01b0385166020820152836040820152608060608201526000616b9c6080830184866168e4565b979650505050505050565b600082601f830112616bb857600080fd5b8135616bc66169ad8261693f565b818152846020838601011115616bdb57600080fd5b816020850160208301376000918101602001919091529392505050565b60006101208236031215616c0b57600080fd5b616c1361646f565b616c1c83615ec6565b81526020838101359082015260408301356001600160401b03811115616c4157600080fd5b616c4d36828601616ba7565b60408301525060608301356001600160401b03811115616c6c57600080fd5b616c7836828601616ba7565b6060830152506080838101359082015260a0808401359082015260c0808401359082015260e08301356001600160401b03811115616cb557600080fd5b616cc136828601616ba7565b60e0830152506101008301356001600160401b03811115616ce157600080fd5b616ced36828601616ba7565b6101008301525092915050565b80516001600160a01b0316825260208101516020830152600060408201516101206040850152616d2e610120850182616329565b905060608301518482036060860152616d478282616329565b9150506080830151608085015260a083015160a085015260c083015160c085015260e083015184820360e0860152616d7f8282616329565b9150506101008301518482036101008601526109338282616329565b604081526000616dae6040830185616cfa565b90508260208301529392505050565b600060208284031215616dcf57600080fd5b5051919050565b838152606060208201526000616def6060830185616cfa565b9050826040830152949350505050565b63ffffffff818116838216019081111561094d57634e487b7160e01b600052601160045260246000fd5b828152604060208201526000610b016040830184616329565b80356001600160c01b03198116906008841015616a33576001600160c01b031960089490940360031b84901b1690921692915050565b828152604060208201526000610b016040830184616cfa565b80356001600160501b03198116906016841015616a33576001600160501b031960169490940360031b84901b1690921692915050565b838152818360208301376000910160200190815292915050565b80356001600160f01b03198116906002841015616a33576001600160f01b031960029490940360031b84901b1690921692915050565b60008235605e19833603018112616f2d57600080fd5b9190910192915050565b84815260018060a01b0384166020820152826040820152608060608201526000616935608083018461632956fed21d0b289f126c4b473ea641963e766833c2f13866e4ff480abd787c100ef123341347516a9de374859dfda710fa4828b2d48cb57d4fbe4c1149612b8e02276e","linkReferences":{}},"methodIdentifiers":{"accountId()":"9cfd7cff","changeRootValidator(bytes21,address,bytes,bytes)":"52141cd9","currentNonce()":"adb610a3","eip712Domain()":"84b0196e","entrypoint()":"a65d69d4","execute(bytes32,bytes)":"e9ae5c53","executeFromExecutor(bytes32,bytes)":"d691c964","executeUserOp((address,uint256,bytes,bytes,bytes32,uint256,bytes32,bytes,bytes),bytes32)":"8dd7712f","executorConfig(address)":"721e67f4","initialize(bytes21,address,bytes,bytes,bytes[])":"3c3b752b","installModule(uint256,address,bytes)":"9517e29f","installValidations(bytes21[],(uint32,address)[],bytes[],bytes[])":"9198bdf5","invalidateNonce(uint32)":"1f1b92e3","isAllowedSelector(bytes21,bytes4)":"6e6fa0c6","isModuleInstalled(uint256,address,bytes)":"112d3a7d","isValidSignature(bytes32,bytes)":"1626ba7e","onERC1155BatchReceived(address,address,uint256[],uint256[],bytes)":"bc197c81","onERC1155Received(address,address,uint256,uint256,bytes)":"f23a6e61","onERC721Received(address,address,uint256,bytes)":"150b7a02","permissionConfig(bytes4)":"c3e58978","rootValidator()":"f1f7f0f9","selectorConfig(bytes4)":"57b3a5f4","supportsExecutionMode(bytes32)":"d03c7914","supportsModule(uint256)":"f2dc691d","uninstallModule(uint256,address,bytes)":"a71763a8","uninstallValidation(bytes21,bytes,bytes)":"e6f3d50a","upgradeTo(address)":"3659cfe6","validNonceFrom()":"90ef8862","validateUserOp((address,uint256,bytes,bytes,bytes32,uint256,bytes32,bytes,bytes),bytes32,uint256)":"19822f7c","validationConfig(bytes21)":"b8afe17d"},"id":33}